{
  "contractName": "DynAddressArray",
  "abi": [
    {
      "constant": false,
      "inputs": [
        {
          "name": "_self",
          "type": "address[] storage"
        },
        {
          "name": "_element",
          "type": "address"
        }
      ],
      "name": "pop",
      "outputs": [
        {
          "name": "",
          "type": "address[]"
        }
      ],
      "payable": false,
      "stateMutability": "nonpayable",
      "type": "function"
    },
    {
      "constant": true,
      "inputs": [
        {
          "name": "_self",
          "type": "address[]"
        },
        {
          "name": "_element",
          "type": "address"
        }
      ],
      "name": "getIndexOf",
      "outputs": [
        {
          "name": "",
          "type": "uint256"
        }
      ],
      "payable": false,
      "stateMutability": "pure",
      "type": "function"
    },
    {
      "constant": true,
      "inputs": [
        {
          "name": "_self",
          "type": "address[]"
        },
        {
          "name": "_element",
          "type": "address"
        }
      ],
      "name": "isIn",
      "outputs": [
        {
          "name": "",
          "type": "bool"
        }
      ],
      "payable": false,
      "stateMutability": "pure",
      "type": "function"
    }
  ],
  "bytecode": "0x61055b610030600b82828239805160001a6073146000811461002057610022565bfe5b5030600052607381538281f3fe730000000000000000000000000000000000000000301460806040526004361061006d5763ffffffff7c01000000000000000000000000000000000000000000000000000000006000350416634dd14be58114610072578063acb72bb114610134578063de4a90ec146101f4575b600080fd5b6101206004803603604081101561008857600080fd5b8101906020810181356401000000008111156100a357600080fd5b8201836020820111156100b557600080fd5b803590602001918460208302840111640100000000831117156100d757600080fd5b91908080602002602001604051908101604052809392919081815260200183836020028082843760009201919091525092955050509035600160a060020a0316915061027d9050565b604080519115158252519081900360200190f35b6101e26004803603604081101561014a57600080fd5b81019060208101813564010000000081111561016557600080fd5b82018360208201111561017757600080fd5b8035906020019184602083028401116401000000008311171561019957600080fd5b91908080602002602001604051908101604052809392919081815260200183836020028082843760009201919091525092955050509035600160a060020a031691506102dd9050565b60408051918252519081900360200190f35b81801561020057600080fd5b5061022d6004803603604081101561021757600080fd5b5080359060200135600160a060020a03166103ad565b60408051602080825283518183015283519192839290830191858101910280838360005b83811015610269578181015183820152602001610251565b505050509050019250505060405180910390f35b8151600090815b818110156102d057848181518110151561029a57fe5b90602001906020020151600160a060020a031684600160a060020a031614156102c8576001925050506102d7565b600101610284565b5060009150505b92915050565b60006102e9838361027d565b151561035657604080517f08c379a000000000000000000000000000000000000000000000000000000000815260206004820152601860248201527f7061737365642061646472657373206e6f7420666f756e640000000000000000604482015290519081900360640190fd5b825160005b818110156103a55783600160a060020a0316858281518110151561037b57fe5b90602001906020020151600160a060020a0316141561039d5791506102d79050565b60010161035b565b505092915050565b606060006104148480548060200260200160405190810160405280929190818152602001828054801561040957602002820191906000526020600020905b8154600160a060020a031681526001909101906020018083116103eb575b5050505050846102dd565b845490915060001981018210801561042c5750600181115b1561049757846001820381548110151561044257fe5b6000918252602090912001548554600160a060020a039091169086908490811061046857fe5b9060005260206000200160006101000a815481600160a060020a030219169083600160a060020a031602179055505b8480548015156104a357fe5b6001900381819060005260206000200160006101000a815490600160a060020a03021916905590558480548060200260200160405190810160405280929190818152602001828054801561052057602002820191906000526020600020905b8154600160a060020a03168152600190910190602001808311610502575b5050505050925050509291505056fea165627a7a723058208fd9eadb1e37bce5503b7a2f997716855a9449c62fa73c34064734ba76e431c70029",
  "source": "pragma solidity ^0.5.0;\r\n\r\n\r\nlibrary DynAddressArray {\r\n    function pop(address[] storage _self, address _element)\r\n        public\r\n        returns (address[] memory)\r\n    {\r\n        uint256 i = getIndexOf(_self, _element);\r\n        uint256 j = _self.length;\r\n        if (i < j - 1 && j > 1) {\r\n            //If we are going to delete an id in the middle of the array we just overrite it with the last item.\r\n            _self[i] = _self[j - 1];\r\n        }\r\n        //The last Iteam of the arry was copied before or is the id we want to delat anyway.\r\n        _self.pop();\r\n        return _self;\r\n    }\r\n\r\n    // it is unefficent to itterate over the arrays twice. Consider to combine isIn an get IndexOf\r\n    // function to get the current index of an id\r\n    function getIndexOf(address[] memory _self, address _element)\r\n        public\r\n        pure\r\n        returns (uint256)\r\n    {\r\n        require(isIn(_self, _element), \"passed address not found\");\r\n        uint256 j = _self.length;\r\n        for (uint256 i = 0; i < j; i++) {\r\n            if (_self[i] == _element) {\r\n                return i;\r\n            }\r\n        }\r\n    }\r\n\r\n    // function to check if an passed id is in the array.\r\n    function isIn(address[] memory _self, address _element)\r\n        public\r\n        pure\r\n        returns (bool)\r\n    {\r\n        uint256 j = _self.length;\r\n        for (uint256 i = 0; i < j; i++) {\r\n            if (_element == _self[i]) return true;\r\n        }\r\n        return false;\r\n    }\r\n}\r\n",
  "sourcePath": "C:/Users/LB/react-master-data/src/truffle/contracts/DynAddressArray.sol",
  "compiler": {
    "name": "solc",
    "version": "0.5.0+commit.1d4f565a.Emscripten.clang"
  },
  "schemaVersion": "3.2.2",
  "updatedAt": "2020-07-27T16:04:01.278Z",
  "networkType": "ethereum",
  "devdoc": {
    "methods": {}
  },
  "userdoc": {
    "methods": {}
  }
}