{
  "contractName": "DynBytes32ArrayExtended",
  "abi": [
    {
      "constant": false,
      "inputs": [
        {
          "name": "_self",
          "type": "bytes32[] storage"
        },
        {
          "name": "_element",
          "type": "bytes32"
        }
      ],
      "name": "pop",
      "outputs": [
        {
          "name": "",
          "type": "bytes32[]"
        }
      ],
      "payable": false,
      "stateMutability": "nonpayable",
      "type": "function"
    },
    {
      "constant": true,
      "inputs": [
        {
          "name": "_self",
          "type": "bytes32[]"
        },
        {
          "name": "_element",
          "type": "bytes32"
        }
      ],
      "name": "getIndexOf",
      "outputs": [
        {
          "name": "",
          "type": "uint256"
        }
      ],
      "payable": false,
      "stateMutability": "pure",
      "type": "function"
    },
    {
      "constant": true,
      "inputs": [
        {
          "name": "_self",
          "type": "bytes32[]"
        },
        {
          "name": "_element",
          "type": "bytes32"
        }
      ],
      "name": "isIn",
      "outputs": [
        {
          "name": "",
          "type": "bool"
        }
      ],
      "payable": false,
      "stateMutability": "pure",
      "type": "function"
    }
  ],
  "bytecode": "0x6104c6610030600b82828239805160001a6073146000811461002057610022565bfe5b5030600052607381538281f3fe730000000000000000000000000000000000000000301460806040526004361061006d5763ffffffff7c010000000000000000000000000000000000000000000000000000000060003504166327c034288114610072578063668876f214610129578063b374affd146101a9575b600080fd5b6101176004803603604081101561008857600080fd5b8101906020810181356401000000008111156100a357600080fd5b8201836020820111156100b557600080fd5b803590602001918460208302840111640100000000831117156100d757600080fd5b9190808060200260200160405190810160405280939291908181526020018383602002808284376000920191909152509295505091359250610262915050565b60408051918252519081900360200190f35b81801561013557600080fd5b506101596004803603604081101561014c57600080fd5b5080359060200135610321565b60408051602080825283518183015283519192839290830191858101910280838360005b8381101561019557818101518382015260200161017d565b505050509050019250505060405180910390f35b61024e600480360360408110156101bf57600080fd5b8101906020810181356401000000008111156101da57600080fd5b8201836020820111156101ec57600080fd5b8035906020019184602083028401116401000000008311171561020e57600080fd5b919080806020026020016040519081016040528093929190818152602001838360200280828437600092019190915250929550509135925061044e915050565b604080519115158252519081900360200190f35b600061026e838361044e565b15156102db57604080517f08c379a000000000000000000000000000000000000000000000000000000000815260206004820152601860248201527f7061737365642062797465733332206e6f7420666f756e640000000000000000604482015290519081900360640190fd5b825160005b81811015610318578385828151811015156102f757fe5b90602001906020020151141561031057915061031b9050565b6001016102e0565b50505b92915050565b6060600061037e8480548060200260200160405190810160405280929190818152602001828054801561037357602002820191906000526020600020905b81548152602001906001019080831161035f575b505050505084610262565b84549091506000198101821080156103965750600181115b156103d25784600182038154811015156103ac57fe5b906000526020600020015485838154811015156103c557fe5b6000918252602090912001555b8480548015156103de57fe5b600190038181906000526020600020016000905590558480548060200260200160405190810160405280929190818152602001828054801561043f57602002820191906000526020600020905b81548152602001906001019080831161042b575b50505050509250505092915050565b8151600090815b8181101561048f57848181518110151561046b57fe5b906020019060200201518414156104875760019250505061031b565b600101610455565b50600094935050505056fea165627a7a723058204715373d1104b60c50c3fd06c42acf5e48331d05b6404ca925dfc785aae2e7020029",
  "source": "pragma solidity ^0.5.0;\r\n\r\nlibrary DynBytes32ArrayExtended{\r\n\r\n    function pop(bytes32[] storage _self, bytes32 _element)public returns(bytes32[] memory){\r\n        uint i = getIndexOf(_self, _element);\r\n        uint j = _self.length;\r\n        if(i < j-1 && j > 1){\r\n            //If we are going to delete an id in the middle of the array we just overrite it with the last item.\r\n            _self[i] = _self[j-1];\r\n        }\r\n        //The last Iteam of the arry was copied before or is the id we want to delat anyway.\r\n        _self.pop();\r\n        return _self;\r\n    }\r\n\r\n    // it is unefficent to itterate over the arrays twice. Consider to combine isIn an get IndexOf\r\n    // function to get the current index of an id\r\n    function getIndexOf(bytes32[] memory _self, bytes32 _element) public pure returns(uint){\r\n        require (isIn(_self,_element),\"passed bytes32 not found\");\r\n        uint j = _self.length;\r\n        for(uint i = 0; i < j; i++){\r\n            if(_self[i] == _element){\r\n                return i;\r\n            }\r\n        }\r\n    }\r\n\r\n    // function to check if an passed id is in the array.\r\n    function isIn(bytes32[] memory _self, bytes32 _element) public pure returns(bool) {\r\n        uint j = _self.length;\r\n        for(uint i = 0; i < j; i++){\r\n            if(_element == _self[i])\r\n            return true;\r\n        }\r\n        return false;\r\n    }\r\n}",
  "sourcePath": "C:\\Users\\LB\\react-master-data\\src\\truffle\\contracts\\DynBytes32ArrayExtended.sol",
  "compiler": {
    "name": "solc",
    "version": "0.5.0+commit.1d4f565a.Emscripten.clang"
  },
  "schemaVersion": "3.2.2",
  "updatedAt": "2020-07-27T16:04:01.286Z",
  "networkType": "ethereum",
  "devdoc": {
    "methods": {}
  },
  "userdoc": {
    "methods": {}
  }
}