{
  "contractName": "ExtendedBytes32",
  "abi": [
    {
      "constant": true,
      "inputs": [
        {
          "name": "_self",
          "type": "bytes32"
        },
        {
          "name": "_n",
          "type": "uint256"
        }
      ],
      "name": "leftShift",
      "outputs": [
        {
          "name": "",
          "type": "bytes32"
        }
      ],
      "payable": false,
      "stateMutability": "pure",
      "type": "function"
    },
    {
      "constant": true,
      "inputs": [
        {
          "name": "_self",
          "type": "bytes32"
        },
        {
          "name": "_n",
          "type": "uint256"
        }
      ],
      "name": "rightShift",
      "outputs": [
        {
          "name": "",
          "type": "bytes32"
        }
      ],
      "payable": false,
      "stateMutability": "pure",
      "type": "function"
    },
    {
      "constant": true,
      "inputs": [
        {
          "name": "_self",
          "type": "bytes32"
        },
        {
          "name": "_prefix",
          "type": "bytes2"
        }
      ],
      "name": "prefix",
      "outputs": [
        {
          "name": "",
          "type": "bytes32"
        }
      ],
      "payable": false,
      "stateMutability": "pure",
      "type": "function"
    },
    {
      "constant": true,
      "inputs": [
        {
          "name": "_self",
          "type": "bytes32"
        },
        {
          "name": "_prefix",
          "type": "int16"
        }
      ],
      "name": "prefix",
      "outputs": [
        {
          "name": "",
          "type": "bytes32"
        }
      ],
      "payable": false,
      "stateMutability": "pure",
      "type": "function"
    }
  ],
  "bytecode": "0x61022a610030600b82828239805160001a6073146000811461002057610022565bfe5b5030600052607381538281f3fe73000000000000000000000000000000000000000030146080604052600436106100775763ffffffff7c01000000000000000000000000000000000000000000000000000000006000350416622238b4811461007c578063046dfffe146100b157806307c750ea146100f6578063345561b71461011c575b600080fd5b61009f6004803603604081101561009257600080fd5b508035906020013561013f565b60408051918252519081900360200190f35b61009f600480360360408110156100c757600080fd5b50803590602001357fffff00000000000000000000000000000000000000000000000000000000000016610146565b61009f6004803603604081101561010c57600080fd5b508035906020013560010b610181565b61009f6004803603604081101561013257600080fd5b50803590602001356101e1565b60100a0290565b6000806101548460026101e1565b7fffff00000000000000000000000000000000000000000000000000000000000084161791505092915050565b60007e010000000000000000000000000000000000000000000000000000000000008202816101b18560046101e1565b7fffff00000000000000000000000000000000000000000000000000000000000090921690911791505092915050565b60008281601084900a828115156101f457fe5b049594505050505056fea165627a7a7230582005d48f94a43c1ec6649fe178774dbb19da66a4dc1c1d6825122ef694cbcfa7aa0029",
  "source": "pragma solidity ^0.5.0;\r\n\r\n\r\nlibrary ExtendedBytes32{\r\n\r\n    function leftShift(bytes32 _self, uint _n) public pure returns(bytes32)\r\n    {\r\n        uint aInt = uint(_self);\r\n        uint shifted = aInt*(16**_n);\r\n        return (bytes32(shifted));\r\n    }\r\n\r\n    function rightShift(bytes32 _self, uint _n) public pure returns(bytes32)\r\n    {\r\n        uint aInt = uint(_self);\r\n        uint shifted = aInt/(16**_n);\r\n        return (bytes32(shifted));\r\n    }\r\n\r\n    function prefix(bytes32 _self, bytes2 _prefix) public pure returns(bytes32)\r\n    {\r\n        bytes32 body = rightShift(_self, _prefix.length);\r\n        return body | _prefix;\r\n    }\r\n\r\n    function prefix(bytes32 _self, int16 _prefix) public pure returns(bytes32)\r\n    {\r\n        bytes2 prefixBytes = bytes2(_prefix);\r\n        bytes32 body = rightShift(_self, 4);\r\n        return body | prefixBytes;\r\n\r\n    }\r\n}\r\n",
  "sourcePath": "C:\\Users\\LB\\react-master-data\\src\\truffle\\contracts\\ExtendedBytes32.sol",
  "compiler": {
    "name": "solc",
    "version": "0.5.0+commit.1d4f565a.Emscripten.clang"
  },
  "schemaVersion": "3.2.2",
  "updatedAt": "2020-07-27T16:04:01.294Z",
  "networkType": "ethereum",
  "devdoc": {
    "methods": {}
  },
  "userdoc": {
    "methods": {}
  }
}