{
  "contractName": "MasterData",
  "abi": [
    {
      "constant": false,
      "inputs": [
        {
          "name": "_random",
          "type": "bytes32"
        },
        {
          "name": "_orgType",
          "type": "uint256"
        }
      ],
      "name": "newOrgElement",
      "outputs": [],
      "payable": false,
      "stateMutability": "nonpayable",
      "type": "function"
    },
    {
      "constant": true,
      "inputs": [],
      "name": "getIds",
      "outputs": [
        {
          "name": "",
          "type": "bytes32[]"
        }
      ],
      "payable": false,
      "stateMutability": "view",
      "type": "function"
    },
    {
      "constant": false,
      "inputs": [
        {
          "name": "_id",
          "type": "bytes32"
        },
        {
          "name": "_dataKey",
          "type": "bytes32"
        },
        {
          "name": "_data",
          "type": "string"
        }
      ],
      "name": "setData",
      "outputs": [],
      "payable": false,
      "stateMutability": "nonpayable",
      "type": "function"
    },
    {
      "constant": false,
      "inputs": [
        {
          "name": "_id",
          "type": "bytes32"
        },
        {
          "name": "_dataKey",
          "type": "bytes32"
        }
      ],
      "name": "removeData",
      "outputs": [],
      "payable": false,
      "stateMutability": "nonpayable",
      "type": "function"
    },
    {
      "constant": false,
      "inputs": [
        {
          "name": "_id",
          "type": "bytes32"
        },
        {
          "name": "_dataKey",
          "type": "bytes32"
        },
        {
          "name": "_data",
          "type": "string"
        }
      ],
      "name": "changeData",
      "outputs": [],
      "payable": false,
      "stateMutability": "nonpayable",
      "type": "function"
    },
    {
      "constant": true,
      "inputs": [
        {
          "name": "_id",
          "type": "bytes32"
        },
        {
          "name": "_dataKey",
          "type": "bytes32"
        }
      ],
      "name": "getData",
      "outputs": [
        {
          "name": "data",
          "type": "string"
        }
      ],
      "payable": false,
      "stateMutability": "view",
      "type": "function"
    },
    {
      "constant": true,
      "inputs": [
        {
          "name": "_id",
          "type": "bytes32"
        },
        {
          "name": "_dataKey",
          "type": "bytes32"
        }
      ],
      "name": "getTimeLastChanged",
      "outputs": [
        {
          "name": "",
          "type": "uint256"
        }
      ],
      "payable": false,
      "stateMutability": "view",
      "type": "function"
    },
    {
      "constant": true,
      "inputs": [
        {
          "name": "_id",
          "type": "bytes32"
        }
      ],
      "name": "getDataKeys",
      "outputs": [
        {
          "name": "",
          "type": "bytes32[]"
        }
      ],
      "payable": false,
      "stateMutability": "view",
      "type": "function"
    },
    {
      "constant": true,
      "inputs": [
        {
          "name": "_id",
          "type": "bytes32"
        }
      ],
      "name": "getOrgType",
      "outputs": [
        {
          "name": "",
          "type": "uint256"
        }
      ],
      "payable": false,
      "stateMutability": "view",
      "type": "function"
    },
    {
      "constant": false,
      "inputs": [
        {
          "name": "_id",
          "type": "bytes32"
        },
        {
          "name": "_addr",
          "type": "address"
        }
      ],
      "name": "setOwner",
      "outputs": [],
      "payable": false,
      "stateMutability": "nonpayable",
      "type": "function"
    },
    {
      "constant": true,
      "inputs": [
        {
          "name": "_id",
          "type": "bytes32"
        }
      ],
      "name": "getOwner",
      "outputs": [
        {
          "name": "",
          "type": "address"
        }
      ],
      "payable": false,
      "stateMutability": "view",
      "type": "function"
    },
    {
      "constant": false,
      "inputs": [
        {
          "name": "_id",
          "type": "bytes32"
        },
        {
          "name": "_addr",
          "type": "address"
        }
      ],
      "name": "addAdmin",
      "outputs": [],
      "payable": false,
      "stateMutability": "nonpayable",
      "type": "function"
    },
    {
      "constant": false,
      "inputs": [
        {
          "name": "_id",
          "type": "bytes32"
        },
        {
          "name": "_addr",
          "type": "address"
        }
      ],
      "name": "rmAdmin",
      "outputs": [],
      "payable": false,
      "stateMutability": "nonpayable",
      "type": "function"
    },
    {
      "constant": false,
      "inputs": [
        {
          "name": "_id",
          "type": "bytes32"
        },
        {
          "name": "_addr",
          "type": "address"
        }
      ],
      "name": "addParticipant",
      "outputs": [],
      "payable": false,
      "stateMutability": "nonpayable",
      "type": "function"
    },
    {
      "constant": false,
      "inputs": [
        {
          "name": "_id",
          "type": "bytes32"
        },
        {
          "name": "_addr",
          "type": "address"
        }
      ],
      "name": "rmParticipant",
      "outputs": [],
      "payable": false,
      "stateMutability": "nonpayable",
      "type": "function"
    },
    {
      "constant": true,
      "inputs": [
        {
          "name": "_id",
          "type": "bytes32"
        }
      ],
      "name": "getParticipants",
      "outputs": [
        {
          "name": "",
          "type": "address[]"
        }
      ],
      "payable": false,
      "stateMutability": "view",
      "type": "function"
    },
    {
      "constant": true,
      "inputs": [
        {
          "name": "_id",
          "type": "bytes32"
        },
        {
          "name": "_addr",
          "type": "address"
        }
      ],
      "name": "getRight",
      "outputs": [
        {
          "name": "",
          "type": "uint256"
        }
      ],
      "payable": false,
      "stateMutability": "view",
      "type": "function"
    },
    {
      "constant": false,
      "inputs": [
        {
          "name": "_id",
          "type": "bytes32"
        },
        {
          "name": "_dataKey",
          "type": "bytes32"
        },
        {
          "name": "_rateing",
          "type": "int256"
        }
      ],
      "name": "rateData",
      "outputs": [],
      "payable": false,
      "stateMutability": "nonpayable",
      "type": "function"
    },
    {
      "constant": true,
      "inputs": [
        {
          "name": "_id",
          "type": "bytes32"
        },
        {
          "name": "_dataKey",
          "type": "bytes32"
        }
      ],
      "name": "getDataRateing",
      "outputs": [
        {
          "name": "",
          "type": "int256"
        }
      ],
      "payable": false,
      "stateMutability": "view",
      "type": "function"
    },
    {
      "constant": false,
      "inputs": [
        {
          "name": "_id",
          "type": "bytes32"
        },
        {
          "name": "_relatedId",
          "type": "bytes32"
        },
        {
          "name": "_relationType",
          "type": "bytes32"
        },
        {
          "name": "_orientation",
          "type": "int16"
        }
      ],
      "name": "addRelation",
      "outputs": [],
      "payable": false,
      "stateMutability": "nonpayable",
      "type": "function"
    },
    {
      "constant": false,
      "inputs": [
        {
          "name": "_id",
          "type": "bytes32"
        },
        {
          "name": "_relatedId",
          "type": "bytes32"
        },
        {
          "name": "_relationType",
          "type": "bytes32"
        },
        {
          "name": "_orientation",
          "type": "int16"
        }
      ],
      "name": "rmRelation",
      "outputs": [],
      "payable": false,
      "stateMutability": "nonpayable",
      "type": "function"
    },
    {
      "constant": true,
      "inputs": [
        {
          "name": "_id",
          "type": "bytes32"
        }
      ],
      "name": "getRelatedIds",
      "outputs": [
        {
          "name": "",
          "type": "bytes32[]"
        }
      ],
      "payable": false,
      "stateMutability": "view",
      "type": "function"
    },
    {
      "constant": true,
      "inputs": [
        {
          "name": "_id",
          "type": "bytes32"
        },
        {
          "name": "_relatedId",
          "type": "bytes32"
        }
      ],
      "name": "getRelation",
      "outputs": [
        {
          "name": "",
          "type": "bytes32[]"
        }
      ],
      "payable": false,
      "stateMutability": "view",
      "type": "function"
    },
    {
      "constant": true,
      "inputs": [
        {
          "name": "_addr",
          "type": "address"
        }
      ],
      "name": "getElementsByOwner",
      "outputs": [
        {
          "name": "",
          "type": "bytes32[]"
        }
      ],
      "payable": false,
      "stateMutability": "view",
      "type": "function"
    },
    {
      "constant": true,
      "inputs": [
        {
          "name": "_addr",
          "type": "address"
        }
      ],
      "name": "getElementsByAdmin",
      "outputs": [
        {
          "name": "",
          "type": "bytes32[]"
        }
      ],
      "payable": false,
      "stateMutability": "view",
      "type": "function"
    },
    {
      "constant": true,
      "inputs": [
        {
          "name": "_addr",
          "type": "address"
        }
      ],
      "name": "getElementsByParticipant",
      "outputs": [
        {
          "name": "",
          "type": "bytes32[]"
        }
      ],
      "payable": false,
      "stateMutability": "view",
      "type": "function"
    },
    {
      "constant": false,
      "inputs": [
        {
          "name": "_id",
          "type": "bytes32"
        },
        {
          "name": "_dataKey",
          "type": "bytes32"
        },
        {
          "name": "_signingId",
          "type": "bytes32"
        },
        {
          "name": "_dataHash",
          "type": "bytes32"
        },
        {
          "name": "_sig",
          "type": "string"
        },
        {
          "name": "_vaildFrom",
          "type": "uint32"
        },
        {
          "name": "_vaildTo",
          "type": "uint32"
        }
      ],
      "name": "addSignature",
      "outputs": [],
      "payable": false,
      "stateMutability": "nonpayable",
      "type": "function"
    },
    {
      "constant": false,
      "inputs": [
        {
          "name": "_id",
          "type": "bytes32"
        },
        {
          "name": "_dataKey",
          "type": "bytes32"
        },
        {
          "name": "_signingId",
          "type": "bytes32"
        }
      ],
      "name": "rmSignature",
      "outputs": [],
      "payable": false,
      "stateMutability": "nonpayable",
      "type": "function"
    },
    {
      "constant": true,
      "inputs": [
        {
          "name": "_id",
          "type": "bytes32"
        },
        {
          "name": "_dataKey",
          "type": "bytes32"
        }
      ],
      "name": "getSigningIds",
      "outputs": [
        {
          "name": "",
          "type": "bytes32[]"
        }
      ],
      "payable": false,
      "stateMutability": "view",
      "type": "function"
    },
    {
      "constant": true,
      "inputs": [
        {
          "name": "_id",
          "type": "bytes32"
        },
        {
          "name": "_dataKey",
          "type": "bytes32"
        },
        {
          "name": "signingId",
          "type": "bytes32"
        }
      ],
      "name": "getDataSig",
      "outputs": [
        {
          "name": "",
          "type": "address"
        },
        {
          "name": "",
          "type": "bytes32"
        },
        {
          "name": "",
          "type": "string"
        },
        {
          "name": "",
          "type": "uint32"
        },
        {
          "name": "",
          "type": "uint32"
        }
      ],
      "payable": false,
      "stateMutability": "view",
      "type": "function"
    }
  ],
  "bytecode": "0x608060405234801561001057600080fd5b506140be806100206000396000f3fe6080604052600436106101655763ffffffff60e060020a600035041662afccb4811461016a57806303534c49146101a65780630591f4b5146102295780630b0235be1461025357806314b99d4c1461027d5780632b1056631461035a578063331f3bf91461036f57806338609dea1461044f57806344163ccc146104f45780634dfb6b0b146105275780635b0fc9c3146105575780636419bcdb146105905780636ee26a89146105c957806377ff7d87146105f95780637ec40ccc1461062f578063838affa7146106625780639f05598614610692578063a54964ee146106bc578063a8292520146106f5578063abe3c7a61461072e578063b4d759e1146107ed578063b91cb6b61461082c578063bb46a98214610865578063c1f7ad21146108a4578063c67cf85c146108d4578063d2dec40a1461090a578063db90a2db1461093a578063deb931a214610973578063ec42e447146109b9578063fcccf83514610a78575b600080fd5b34801561017657600080fd5b506101946004803603602081101561018d57600080fd5b5035610aa8565b60408051918252519081900360200190f35b3480156101b257600080fd5b506101d9600480360360208110156101c957600080fd5b5035600160a060020a0316610ae6565b60408051602080825283518183015283519192839290830191858101910280838360005b838110156102155781810151838201526020016101fd565b505050509050019250505060405180910390f35b34801561023557600080fd5b506101d96004803603602081101561024c57600080fd5b5035610b52565b34801561025f57600080fd5b506101d96004803603602081101561027657600080fd5b5035610c67565b34801561028957600080fd5b506102b3600480360360608110156102a057600080fd5b5080359060208101359060400135610cd5565b60408051600160a060020a0387168152602080820187905263ffffffff80861660608401528416608083015260a0928201838152865193830193909352855191929160c084019187019080838360005b8381101561031b578181015183820152602001610303565b50505050905090810190601f1680156103485780820380516001836020036101000a031916815260200191505b50965050505050505060405180910390f35b34801561036657600080fd5b506101d9610dd2565b34801561037b57600080fd5b5061044d600480360360e081101561039257600080fd5b81359160208101359160408201359160608101359181019060a0810160808201356401000000008111156103c557600080fd5b8201836020820111156103d757600080fd5b803590602001918460018302840111640100000000831117156103f957600080fd5b91908080601f0160208091040260200160405190810160405280939291908181526020018383808284376000920191909152509295505063ffffffff8335811694506020909301359092169150610e2b9050565b005b34801561045b57600080fd5b5061047f6004803603604081101561047257600080fd5b5080359060200135611198565b6040805160208082528351818301528351919283929083019185019080838360005b838110156104b95781810151838201526020016104a1565b50505050905090810190601f1680156104e65780820380516001836020036101000a031916815260200191505b509250505060405180910390f35b34801561050057600080fd5b506101d96004803603602081101561051757600080fd5b5035600160a060020a0316611244565b34801561053357600080fd5b506101d96004803603604081101561054a57600080fd5b50803590602001356112ae565b34801561056357600080fd5b5061044d6004803603604081101561057a57600080fd5b5080359060200135600160a060020a03166113cc565b34801561059c57600080fd5b5061044d600480360360408110156105b357600080fd5b5080359060200135600160a060020a0316611493565b3480156105d557600080fd5b506101d9600480360360408110156105ec57600080fd5b5080359060200135611604565b34801561060557600080fd5b5061044d6004803603606081101561061c57600080fd5b5080359060208101359060400135611674565b34801561063b57600080fd5b506101d96004803603602081101561065257600080fd5b5035600160a060020a031661174c565b34801561066e57600080fd5b506101946004803603604081101561068557600080fd5b50803590602001356117b6565b34801561069e57600080fd5b506101d9600480360360208110156106b557600080fd5b50356117d8565b3480156106c857600080fd5b5061044d600480360360408110156106df57600080fd5b5080359060200135600160a060020a031661183b565b34801561070157600080fd5b5061044d6004803603604081101561071857600080fd5b5080359060200135600160a060020a0316611ad8565b34801561073a57600080fd5b5061044d6004803603606081101561075157600080fd5b81359160208101359181019060608101604082013564010000000081111561077857600080fd5b82018360208201111561078a57600080fd5b803590602001918460018302840111640100000000831117156107ac57600080fd5b91908080601f016020809104026020016040519081016040528093929190818152602001838380828437600092019190915250929550611b93945050505050565b3480156107f957600080fd5b5061044d6004803603608081101561081057600080fd5b508035906020810135906040810135906060013560010b611d68565b34801561083857600080fd5b506101946004803603604081101561084f57600080fd5b5080359060200135600160a060020a03166122b0565b34801561087157600080fd5b5061044d6004803603608081101561088857600080fd5b508035906020810135906040810135906060013560010b6122eb565b3480156108b057600080fd5b5061044d600480360360408110156108c757600080fd5b5080359060200135612ad8565b3480156108e057600080fd5b5061044d600480360360608110156108f757600080fd5b5080359060208101359060400135612d3b565b34801561091657600080fd5b5061044d6004803603604081101561092d57600080fd5b5080359060200135613073565b34801561094657600080fd5b5061044d6004803603604081101561095d57600080fd5b5080359060200135600160a060020a0316613389565b34801561097f57600080fd5b5061099d6004803603602081101561099657600080fd5b5035613551565b60408051600160a060020a039092168252519081900360200190f35b3480156109c557600080fd5b5061044d600480360360608110156109dc57600080fd5b813591602081013591810190606081016040820135640100000000811115610a0357600080fd5b820183602082011115610a1557600080fd5b80359060200191846001830284011164010000000083111715610a3757600080fd5b91908080601f016020809104026020016040519081016040528093929190818152602001838380828437600092019190915250929550613570945050505050565b348015610a8457600080fd5b5061019460048036036040811015610a9b57600080fd5b50803590602001356137e8565b60008181526001602081905260408220015474010000000000000000000000000000000000000000900460ff166007811115610ae057fe5b92915050565b600160a060020a038116600090815260046020908152604091829020805483518184028101840190945280845260609392830182828015610b4657602002820191906000526020600020905b815481526020019060010190808311610b32575b50505050509050919050565b6000818152600160209081526040808320338452600701909152902054606090829060ff166002811115610b8257fe5b6001101580610bab575060008181526001602081905260409091200154600160a060020a031633145b1515610c03576040805160e560020a62461bcd02815260206004820152602d60248201526000805160206140338339815191526044820152600080516020614053833981519152606482015290519081900360840190fd5b60008381526001602090815260409182902060030180548351818402810184019094528084529091830182828015610c5a57602002820191906000526020600020905b815481526020019060010190808311610c46575b5050505050915050919050565b600081815260016020908152604091829020600201805483518184028101840190945280845260609392830182828015610b4657602002820191906000526020600020905b8154600160a060020a03168152600190910190602001808311610cac5750505050509050919050565b60008381526001602081815260408084208685526006018252808420858552600401825280842080548185015460038301546002938401805486516101009982161599909902600019011694909404601f8101879004870288018701909552848752879660609688968796600160a060020a03909616959363ffffffff80821694640100000000909204169290918591830182828015610db65780601f10610d8b57610100808354040283529160200191610db6565b820191906000526020600020905b815481529060010190602001808311610d9957829003601f168201915b5050505050925094509450945094509450939792965093509350565b60606000805480602002602001604051908101604052809291908181526020018280548015610e2057602002820191906000526020600020905b815481526020019060010190808311610e0c575b505050505090505b90565b6000878152600160209081526040808320338452600701909152902054879060ff166002811115610e5857fe5b6001101580610e81575060008181526001602081905260409091200154600160a060020a031633145b1515610ed9576040805160e560020a62461bcd02815260206004820152602d60248201526000805160206140338339815191526044820152600080516020614053833981519152606482015290519081900360840190fd5b6000868152600160209081526040808320338452600701909152902054869060ff166002811115610f0657fe5b60021480610f2e575060008181526001602081905260409091200154600160a060020a031633145b1515610f86576040805160e560020a62461bcd02815260206004820152603560248201526000805160206140738339815191526044820152600080516020614013833981519152606482015290519081900360840190fd5b60008981526001602090815260408083208b845260060182529182902060030180548351818402810184019094528084529091830182828015610fe857602002820191906000526020600020905b815481526020019060010190808311610fd4575b50506040805160e060020a63b374affd028152602481018d90526004810191825285516044820152855173__DynBytes32ArrayExtended_______________9663b374affd965094508d93508291606401906020808701910280838360005b8381101561105f578181015183820152602001611047565b50505050905001935050505060206040518083038186803b15801561108357600080fd5b505af4158015611097573d6000803e3d6000fd5b505050506040513d60208110156110ad57600080fd5b505115156110e45760008981526001602081815260408084208c855260060182528320600301805492830181558352909120018790555b60008981526001602081815260408084208c855260060182528084208b85526004018252909220805473ffffffffffffffffffffffffffffffffffffffff191633178155908101889055865161114292600290920191880190613e40565b505050600096875260016020908152604080892097895260069097018152868820958852600490950190945293909420600301805463ffffffff1990811663ffffffff9586161716939092169290921790555050565b600082815260016020818152604080842085855260060182529283902080548451600294821615610100026000190190911693909304601f810183900483028401830190945283835260609390918301828280156112375780601f1061120c57610100808354040283529160200191611237565b820191906000526020600020905b81548152906001019060200180831161121a57829003601f168201915b5050505050905092915050565b600160a060020a038116600090815260036020908152604091829020805483518184028101840190945280845260609392830182828015610b465760200282019190600052602060002090815481526020019060010190808311610b325750505050509050919050565b6000828152600160209081526040808320338452600701909152902054606090839060ff1660028111156112de57fe5b6001101580611307575060008181526001602081905260409091200154600160a060020a031633145b151561135f576040805160e560020a62461bcd02815260206004820152602d60248201526000805160206140338339815191526044820152600080516020614053833981519152606482015290519081900360840190fd5b6000848152600160209081526040808320868452600401825291829020805483518184028101840190945280845290918301828280156113be57602002820191906000526020600020905b8154815260200190600101908083116113aa575b505050505091505092915050565b600082815260016020819052604090912001548290600160a060020a03163314611442576040805160e560020a62461bcd0281526020600482015260296024820152600080516020613ff38339815191526044820152600080516020613fd3833981519152606482015290519081900360840190fd5b61144c338461380c565b600083815260016020819052604090912001805473ffffffffffffffffffffffffffffffffffffffff1916600160a060020a03841617905561148e8284613a8b565b505050565b600082815260016020819052604090912001548290600160a060020a03163314611509576040805160e560020a62461bcd0281526020600482015260296024820152600080516020613ff38339815191526044820152600080516020613fd3833981519152606482015290519081900360840190fd5b60016000848152600160209081526040808320600160a060020a038716845260070190915290205460ff16600281111561153f57fe5b141561158e576000838152600160209081526040808320600160a060020a03861684526007019091529020805460ff1916600217905561157f8284613ab7565b6115898284613c4e565b61148e565b6040805160e560020a62461bcd02815260206004820152602860248201527f6f6e6c79206120506172746963696370616e742063616e206265636f6d65206160448201527f6e2061646d696e21000000000000000000000000000000000000000000000000606482015290519081900360840190fd5b600082815260016020908152604080832084845260060182529182902060030180548351818402810184019094528084526060939283018282801561123757602002820191906000526020600020905b815481526020019060010190808311611654575050505050905092915050565b6000838152600160209081526040808320338452600701909152902054839060ff1660028111156116a157fe5b60011015806116ca575060008181526001602081905260409091200154600160a060020a031633145b1515611722576040805160e560020a62461bcd02815260206004820152602d60248201526000805160206140338339815191526044820152600080516020614053833981519152606482015290519081900360840190fd5b50600092835260016020818152604080862094865260069094019052919092200180549091019055565b600160a060020a038116600090815260026020908152604091829020805483518184028101840190945280845260609392830182828015610b465760200282019190600052602060002090815481526020019060010190808311610b325750505050509050919050565b6000918252600160208181526040808520938552600690930190529120015490565b600081815260016020908152604091829020600501805483518184028101840190945280845260609392830182828015610b465760200282019190600052602060002090815481526020019060010190808311610b325750505050509050919050565b6000828152600160209081526040808320338452600701909152902054829060ff16600281111561186857fe5b60021480611890575060008181526001602081905260409091200154600160a060020a031633145b15156118e8576040805160e560020a62461bcd02815260206004820152603560248201526000805160206140738339815191526044820152600080516020614013833981519152606482015290519081900360840190fd5b60016000848152600160209081526040808320600160a060020a038716845260070190915290205460ff16600281111561191e57fe5b1415611a62576000838152600160208181526040808420600160a060020a038716808652600782018452828620805460ff191690558886529390925280517fde4a90ec000000000000000000000000000000000000000000000000000000008152600290920160048301526024820192909252905173__DynAddressArray_______________________9263de4a90ec9260448082019391829003018186803b1580156119ca57600080fd5b505af41580156119de573d6000803e3d6000fd5b505050506040513d6000823e601f3d908101601f191682016040526020811015611a0757600080fd5b810190808051640100000000811115611a1f57600080fd5b82016020810184811115611a3257600080fd5b8151856020820283011164010000000082111715611a4f57600080fd5b5050929190505050506115898284613ab7565b6040805160e560020a62461bcd02815260206004820152603260248201527f41646472657373206973206e6f742061207061727469636970616e74206f662060448201527f74686973206f72672e20656c656d656e742e0000000000000000000000000000606482015290519081900360840190fd5b600082815260016020819052604090912001548290600160a060020a03163314611b4e576040805160e560020a62461bcd0281526020600482015260296024820152600080516020613ff38339815191526044820152600080516020613fd3833981519152606482015290519081900360840190fd5b6000838152600160208181526040808420600160a060020a0387168552600701909152909120805460ff19169091179055611b898284613c7a565b61148e8284613e14565b6000838152600160209081526040808320338452600701909152902054839060ff166002811115611bc057fe5b60021480611be8575060008181526001602081905260409091200154600160a060020a031633145b1515611c40576040805160e560020a62461bcd02815260206004820152603560248201526000805160206140738339815191526044820152600080516020614013833981519152606482015290519081900360840190fd5b600084815260016020818152604080842087855260060190915290912054600291811615610100026000190116041515611cea576040805160e560020a62461bcd02815260206004820152602e60248201527f5468697320646174616669656c64207761736e277420696e6974696c697a656460448201527f20627920746865206f776e657221000000000000000000000000000000000000606482015290519081900360840190fd5b600084815260016020908152604080832086845260060182529091208351611d1492850190613e40565b5060008481526001602090815260408083208684526006019091528120611d4091600390910190613ebe565b5050600091825260016020908152604080842092845260069092019052902042600290910155565b6000848152600160209081526040808320338452600701909152902054849060ff166002811115611d9557fe5b60021480611dbd575060008181526001602081905260409091200154600160a060020a031633145b1515611e15576040805160e560020a62461bcd02815260206004820152603560248201526000805160206140738339815191526044820152600080516020614013833981519152606482015290519081900360840190fd5b60008581526001602090815260409182902060030180548351818402810184019094528084529091830182828015611e6c57602002820191906000526020600020905b815481526020019060010190808311611e58575b50506040805160e060020a63b374affd028152602481018a90526004810191825285516044820152855173__DynBytes32ArrayExtended_______________9663b374affd965094508a93508291606401906020808701910280838360005b83811015611ee3578181015183820152602001611ecb565b50505050905001935050505060206040518083038186803b158015611f0757600080fd5b505af4158015611f1b573d6000803e3d6000fd5b505050506040513d6020811015611f3157600080fd5b50511515611f785760008581526001602081815260408084206003908101805480860182559086528386200189905588855290842001805492830181558352909120018590555b600085815260016020908152604080832087845260040182529182902080548351818402810184019094528084529091830182828015611fd757602002820191906000526020600020905b815481526020019060010190808311611fc3575b505050505073__DynBytes32ArrayExtended_______________63b374affd90918573__ExtendedBytes32_______________________6307c750ea9091876040518363ffffffff1660e060020a028152600401808381526020018260010b60010b81526020019250505060206040518083038186803b15801561205a57600080fd5b505af415801561206e573d6000803e3d6000fd5b505050506040513d602081101561208457600080fd5b50516040805160e060020a63ffffffff861602815260248101839052600481019182528351604482015283518291606401906020868101910280838360005b838110156120db5781810151838201526020016120c3565b50505050905001935050505060206040518083038186803b1580156120ff57600080fd5b505af4158015612113573d6000803e3d6000fd5b505050506040513d602081101561212957600080fd5b505115156122a95760008581526001602081815260408084208885526004908101835293819020815160e160020a6303e3a87502815294850188905286840b90930b602485015251919273__ExtendedBytes32_______________________926307c750ea92604480840193919291829003018186803b1580156121ac57600080fd5b505af41580156121c0573d6000803e3d6000fd5b505050506040513d60208110156121d657600080fd5b50518154600181810184556000938452602080852090920192909255868352818152604080842089855260049081018352818520825160e160020a6303e3a87502815291820189905294879003840b90930b60248401525173__ExtendedBytes32_______________________926307c750ea926044808301939192829003018186803b15801561226657600080fd5b505af415801561227a573d6000803e3d6000fd5b505050506040513d602081101561229057600080fd5b5051815460018101835560009283526020909220909101555b5050505050565b6000828152600160209081526040808320600160a060020a038516845260070190915281205460ff1660028111156122e457fe5b9392505050565b6000848152600160209081526040808320338452600701909152902054849060ff16600281111561231857fe5b60021480612340575060008181526001602081905260409091200154600160a060020a031633145b1515612398576040805160e560020a62461bcd02815260206004820152603560248201526000805160206140738339815191526044820152600080516020614013833981519152606482015290519081900360840190fd5b6000858152600160209081526040808320878452600401825291829020805483518184028101840190945280845290918301828280156123f757602002820191906000526020600020905b8154815260200190600101908083116123e3575b505050505073__DynBytes32ArrayExtended_______________63b374affd90918573__ExtendedBytes32_______________________6307c750ea9091876040518363ffffffff1660e060020a028152600401808381526020018260010b60010b81526020019250505060206040518083038186803b15801561247a57600080fd5b505af415801561248e573d6000803e3d6000fd5b505050506040513d60208110156124a457600080fd5b50516040805160e060020a63ffffffff861602815260248101839052600481019182528351604482015283518291606401906020868101910280838360005b838110156124fb5781810151838201526020016124e3565b50505050905001935050505060206040518083038186803b15801561251f57600080fd5b505af4158015612533573d6000803e3d6000fd5b505050506040513d602081101561254957600080fd5b5051156128775760008581526001602081815260408084208885526004908101835293819020815160e160020a6303e3a87502815294850188905286840b90930b60248501525173__DynBytes32ArrayExtended_______________9363668876f2939273__ExtendedBytes32_______________________926307c750ea926044808201939291829003018186803b1580156125e557600080fd5b505af41580156125f9573d6000803e3d6000fd5b505050506040513d602081101561260f57600080fd5b50516040805160e060020a63ffffffff861602815260048101939093526024830191909152516044808301926000929190829003018186803b15801561265457600080fd5b505af4158015612668573d6000803e3d6000fd5b505050506040513d6000823e601f3d908101601f19168201604052602081101561269157600080fd5b8101908080516401000000008111156126a957600080fd5b820160208101848111156126bc57600080fd5b81518560208202830111640100000000821117156126d957600080fd5b50505060008781526001602081815260408084208c855260049081018352818520825160e160020a6303e3a8750281529182018c9052948a9003840b90930b60248401525173__DynBytes32ArrayExtended_______________965063668876f2955092935073__ExtendedBytes32_______________________926307c750ea926044808201939291829003018186803b15801561277757600080fd5b505af415801561278b573d6000803e3d6000fd5b505050506040513d60208110156127a157600080fd5b50516040805160e060020a63ffffffff861602815260048101939093526024830191909152516044808301926000929190829003018186803b1580156127e657600080fd5b505af41580156127fa573d6000803e3d6000fd5b505050506040513d6000823e601f3d908101601f19168201604052602081101561282357600080fd5b81019080805164010000000081111561283b57600080fd5b8201602081018481111561284e57600080fd5b815185602082028301116401000000008211171561286b57600080fd5b506128c7945050505050565b6040805160e560020a62461bcd02815260206004820152601260248201527f52656c6174696f6e206e6f7420666f756e640000000000000000000000000000604482015290519081900360640190fd5b600085815260016020908152604080832087845260040190915290205415156122a957600085815260016020526040808220815160e160020a6333443b790281526003909101600482015260248101879052905173__DynBytes32ArrayExtended_______________9263668876f29260448082019391829003018186803b15801561295257600080fd5b505af4158015612966573d6000803e3d6000fd5b505050506040513d6000823e601f3d908101601f19168201604052602081101561298f57600080fd5b8101908080516401000000008111156129a757600080fd5b820160208101848111156129ba57600080fd5b81518560208202830111640100000000821117156129d757600080fd5b505050600087815260016020526040808220815160e160020a6333443b7902815260039091016004820152602481018b9052905173__DynBytes32ArrayExtended_______________955063668876f29450604480830194509091829003018186803b158015612a4657600080fd5b505af4158015612a5a573d6000803e3d6000fd5b505050506040513d6000823e601f3d908101601f191682016040526020811015612a8357600080fd5b810190808051640100000000811115612a9b57600080fd5b82016020810184811115612aae57600080fd5b8151856020820283011164010000000082111715612acb57600080fd5b5050505050505050505050565b600082815260016020526040902054829015612b3e576040805160e560020a62461bcd02815260206004820152601360248201527f4944206372656174696f6e206661696c65642100000000000000000000000000604482015290519081900360640190fd5b6040805160c081018252828152336020820152908101836007811115612b6057fe5b6007811115612b6b57fe5b81526020016000604051908082528060200260200182016040528015612b9b578160200160208202803883390190505b5081526020016000604051908082528060200260200182016040528015612bcc578160200160208202803883390190505b5081526020016000604051908082528060200260200182016040528015612bfd578160200160208202803883390190505b5090526000828152600160208181526040928390208451815590840151918101805473ffffffffffffffffffffffffffffffffffffffff1916600160a060020a039093169290921780835592840151909290919074ff0000000000000000000000000000000000000000191674010000000000000000000000000000000000000000836007811115612c8b57fe5b021790555060608201518051612cab916002840191602090910190613edf565b5060808201518051612cc7916003840191602090910190613f4d565b5060a08201518051612ce3916005840191602090910190613f4d565b505060008054600181810183557f290decd9548b62a8d60345a988386fc84ba6bc95484008f6362f93160ef3e56390910184905533825260026020908152604083208054928301815583529091200191909155505050565b6000818152600160209081526040808320338452600701909152902054819060ff166002811115612d6857fe5b60021480612d90575060008181526001602081905260409091200154600160a060020a031633145b1515612de8576040805160e560020a62461bcd02815260206004820152603560248201526000805160206140738339815191526044820152600080516020614013833981519152606482015290519081900360840190fd5b600084815260016020908152604080832086845260060182529182902060030180548351818402810184019094528084529091830182828015612e4a57602002820191906000526020600020905b815481526020019060010190808311612e36575b50506040805160e060020a63b374affd028152602481018890526004810191825285516044820152855173__DynBytes32ArrayExtended_______________9663b374affd965094508893508291606401906020808701910280838360005b83811015612ec1578181015183820152602001612ea9565b50505050905001935050505060206040518083038186803b158015612ee557600080fd5b505af4158015612ef9573d6000803e3d6000fd5b505050506040513d6020811015612f0f57600080fd5b50511561301d576000848152600160209081526040808320868452600601909152808220815160e160020a6333443b790281526003909101600482015260248101859052905173__DynBytes32ArrayExtended_______________9263668876f29260448082019391829003018186803b158015612f8c57600080fd5b505af4158015612fa0573d6000803e3d6000fd5b505050506040513d6000823e601f3d908101601f191682016040526020811015612fc957600080fd5b810190808051640100000000811115612fe157600080fd5b82016020810184811115612ff457600080fd5b815185602082028301116401000000008211171561301157600080fd5b5061306d945050505050565b6040805160e560020a62461bcd02815260206004820152601660248201527f706173736564204964207761736e277420666f756e6400000000000000000000604482015290519081900360640190fd5b50505050565b600082815260016020819052604090912001548290600160a060020a031633146130e9576040805160e560020a62461bcd0281526020600482015260296024820152600080516020613ff38339815191526044820152600080516020613fd3833981519152606482015290519081900360840190fd5b6000838152600160209081526040918290206005018054835181840281018401909452808452909183018282801561314057602002820191906000526020600020905b81548152602001906001019080831161312c575b50506040805160e060020a63b374affd028152602481018890526004810191825285516044820152855173__DynBytes32ArrayExtended_______________9663b374affd965094508893508291606401906020808701910280838360005b838110156131b757818101518382015260200161319f565b50505050905001935050505060206040518083038186803b1580156131db57600080fd5b505af41580156131ef573d6000803e3d6000fd5b505050506040513d602081101561320557600080fd5b5051151561325d576040805160e560020a62461bcd02815260206004820152601f60248201527f746869732064617461206669656c6420646f6573206e6f742065786973742100604482015290519081900360640190fd5b60408051602081810180845260008084528781526001835284812087825260060190925292902090516132909290613e40565b50600083815260016020526040808220815160e160020a6333443b790281526005909101600482015260248101859052905173__DynBytes32ArrayExtended_______________9263668876f29260448082019391829003018186803b1580156132f957600080fd5b505af415801561330d573d6000803e3d6000fd5b505050506040513d6000823e601f3d908101601f19168201604052602081101561333657600080fd5b81019080805164010000000081111561334e57600080fd5b8201602081018481111561336157600080fd5b815185602082028301116401000000008211171561337e57600080fd5b505050505050505050565b6000828152600160209081526040808320338452600701909152902054829060ff1660028111156133b657fe5b600214806133de575060008181526001602081905260409091200154600160a060020a031633145b1515613436576040805160e560020a62461bcd02815260206004820152603560248201526000805160206140738339815191526044820152600080516020614013833981519152606482015290519081900360840190fd5b6000838152600160209081526040808320600160a060020a038616845260070190915281205460ff16600281111561346a57fe5b14156134db576000838152600160208181526040808420600160a060020a038716808652600782018452918520805460ff191685179055838352600201805493840181558452922001805473ffffffffffffffffffffffffffffffffffffffff191690911790556115898284613e14565b6040805160e560020a62461bcd02815260206004820152603660248201527f4164647265737320697320616c72656164792061207061727469636970616e7460448201527f206f662074686973206f72672e20656c656d656e742e00000000000000000000606482015290519081900360840190fd5b60009081526001602081905260409091200154600160a060020a031690565b600083815260016020819052604090912001548390600160a060020a031633146135e6576040805160e560020a62461bcd0281526020600482015260296024820152600080516020613ff38339815191526044820152600080516020613fd3833981519152606482015290519081900360840190fd5b6000848152600160209081526040918290206005018054835181840281018401909452808452909183018282801561363d57602002820191906000526020600020905b815481526020019060010190808311613629575b50506040805160e060020a63b374affd028152602481018990526004810191825285516044820152855173__DynBytes32ArrayExtended_______________9663b374affd965094508993508291606401906020808701910280838360005b838110156136b457818101518382015260200161369c565b50505050905001935050505060206040518083038186803b1580156136d857600080fd5b505af41580156136ec573d6000803e3d6000fd5b505050506040513d602081101561370257600080fd5b50511561377f576040805160e560020a62461bcd02815260206004820152602360248201527f546869732064617461206669656c64207761732073657420757020616c72656160448201527f6479210000000000000000000000000000000000000000000000000000000000606482015290519081900360840190fd5b6000848152600160209081526040808320868452600601825290912083516137a992850190613e40565b50505060009182526001602081815260408085208486526006810183529085204260029091015582825260050180549283018155845290922090910155565b60009182526001602090815260408084209284526006909201905290206002015490565b600160a060020a0382166000908152600260209081526040918290208054835181840281018401909452808452909183018282801561386a57602002820191906000526020600020905b815481526020019060010190808311613856575b50506040805160e060020a63b374affd028152602481018790526004810191825285516044820152855173__DynBytes32ArrayExtended_______________9663b374affd965094508793508291606401906020808701910280838360005b838110156138e15781810151838201526020016138c9565b50505050905001935050505060206040518083038186803b15801561390557600080fd5b505af4158015613919573d6000803e3d6000fd5b505050506040513d602081101561392f57600080fd5b505115613a3757600160a060020a038216600090815260026020526040808220815160e160020a6333443b79028152600481019190915260248101849052905173__DynBytes32ArrayExtended_______________9263668876f29260448082019391829003018186803b1580156139a657600080fd5b505af41580156139ba573d6000803e3d6000fd5b505050506040513d6000823e601f3d908101601f1916820160405260208110156139e357600080fd5b8101908080516401000000008111156139fb57600080fd5b82016020810184811115613a0e57600080fd5b8151856020820283011164010000000082111715613a2b57600080fd5b50613a87945050505050565b6040805160e560020a62461bcd02815260206004820152601460248201527f706173736564206964206e6f7420666f756e6421000000000000000000000000604482015290519081900360640190fd5b5050565b600160a060020a0390911660009081526002602090815260408220805460018101825590835291200155565b600160a060020a03821660009081526004602090815260409182902080548351818402810184019094528084529091830182828015613b1557602002820191906000526020600020905b815481526020019060010190808311613b01575b50506040805160e060020a63b374affd028152602481018790526004810191825285516044820152855173__DynBytes32ArrayExtended_______________9663b374affd965094508793508291606401906020808701910280838360005b83811015613b8c578181015183820152602001613b74565b50505050905001935050505060206040518083038186803b158015613bb057600080fd5b505af4158015613bc4573d6000803e3d6000fd5b505050506040513d6020811015613bda57600080fd5b505115613a3757600160a060020a0382166000908152600460208190526040808320815160e160020a6333443b7902815292830152602482018490525173__DynBytes32ArrayExtended_______________9263668876f29260448082019391829003018186803b1580156139a657600080fd5b600160a060020a0390911660009081526003602090815260408220805460018101825590835291200155565b600160a060020a03821660009081526003602090815260409182902080548351818402810184019094528084529091830182828015613cd857602002820191906000526020600020905b815481526020019060010190808311613cc4575b50506040805160e060020a63b374affd028152602481018790526004810191825285516044820152855173__DynBytes32ArrayExtended_______________9663b374affd965094508793508291606401906020808701910280838360005b83811015613d4f578181015183820152602001613d37565b50505050905001935050505060206040518083038186803b158015613d7357600080fd5b505af4158015613d87573d6000803e3d6000fd5b505050506040513d6020811015613d9d57600080fd5b505115613a3757600160a060020a038216600090815260036020526040808220815160e160020a6333443b79028152600481019190915260248101849052905173__DynBytes32ArrayExtended_______________9263668876f29260448082019391829003018186803b1580156139a657600080fd5b600160a060020a0390911660009081526004602090815260408220805460018101825590835291200155565b828054600181600116156101000203166002900490600052602060002090601f016020900481019282601f10613e8157805160ff1916838001178555613eae565b82800160010185558215613eae579182015b82811115613eae578251825591602001919060010190613e93565b50613eba929150613f87565b5090565b5080546000825590600052602060002090810190613edc9190613f87565b50565b828054828255906000526020600020908101928215613f41579160200282015b82811115613f41578251825473ffffffffffffffffffffffffffffffffffffffff1916600160a060020a03909116178255602090920191600190910190613eff565b50613eba929150613fa1565b828054828255906000526020600020908101928215613eae5791602002820182811115613eae578251825591602001919060010190613e93565b610e2891905b80821115613eba5760008155600101613f8d565b610e2891905b80821115613eba57805473ffffffffffffffffffffffffffffffffffffffff19168155600101613fa756fe66756e6374696f6e2100000000000000000000000000000000000000000000004f6e6c7920746865206f776e65722063616e20706572666f726d2074686973206572666f726d20746869732066756e6374696f6e2100000000000000000000004f6e6c792061207061727469636970616e742063616e20706572666f726d20746869732066756e6374696f6e21000000000000000000000000000000000000004f6e6c7920746865206f776e6572206f7220616e2061646d696e2063616e2070a165627a7a72305820cdccdc8ce3decae80000361db482d0e5f9f2f82475061336e1e4e9d3ec8886760029",
  "source": "pragma solidity ^0.5.0;\r\nimport \"./DynBytes32ArrayExtended.sol\";\r\nimport \"./ExtendedBytes32.sol\";\r\nimport \"./DynAddressArray.sol\";\r\n\r\n\r\ncontract MasterData {\r\n    using DynBytes32ArrayExtended for bytes32[];\r\n    using DynAddressArray for address[];\r\n    using ExtendedBytes32 for bytes32;\r\n\r\n    enum orgTypes {\r\n        Employee,\r\n        Department,\r\n        Location,\r\n        Corporation,\r\n        BuisnessHub,\r\n        Process,\r\n        Port,\r\n        Product\r\n    }\r\n    enum roles {none, participant, admin}\r\n    bytes32[] private ids;\r\n    mapping(bytes32 => orgElement) orgElements;\r\n\r\n    //Central mapping to find all org. elements a passed address has owner rights for.\r\n    mapping(address => bytes32[]) private ownerRights;\r\n    //Central mapping to find all org. elements a passed address has admin rights for.\r\n    mapping(address => bytes32[]) private adminRights;\r\n    //Central mapping to find all org. elements a passed address has participant rights for.\r\n    mapping(address => bytes32[]) private participantRights;\r\n\r\n    struct dataF {\r\n        string data;\r\n        int256 rating;\r\n        uint256 changedLast;\r\n        bytes32[] signingIds;\r\n        mapping(bytes32 => DataSig) signatures;\r\n    }\r\n\r\n    struct DataSig {\r\n        address signingAddress;\r\n        bytes32 dataHash;\r\n        string signature;\r\n        uint32 vaildFrom;\r\n        uint32 vaildTo;\r\n    }\r\n\r\n    struct orgElement {\r\n        bytes32 id;\r\n        address owner;\r\n        orgTypes orgType;\r\n        address[] participants;\r\n        bytes32[] relatedIds;\r\n        mapping(bytes32 => bytes32[]) relationTypes;\r\n        bytes32[] dataKeys;\r\n        mapping(bytes32 => dataF) dataField;\r\n        mapping(address => roles) rights;\r\n    }\r\n\r\n    modifier onlyOwner(bytes32 _id) {\r\n        require(\r\n            msg.sender == orgElements[_id].owner,\r\n            \"Only the owner can perform this function!\"\r\n        );\r\n        _;\r\n    }\r\n\r\n    modifier onlyAdmin(bytes32 _id) {\r\n        require(\r\n            uint256(roles.admin) ==\r\n                uint256(orgElements[_id].rights[msg.sender]) ||\r\n                msg.sender == orgElements[_id].owner,\r\n            \"Only the owner or an admin can perform this function!\"\r\n        );\r\n        _;\r\n    }\r\n\r\n    modifier onlyParticipant(bytes32 _id) {\r\n        require(\r\n            uint256(roles.participant) >=\r\n                uint256(orgElements[_id].rights[msg.sender]) ||\r\n                msg.sender == orgElements[_id].owner,\r\n            \"Only a participant can perform this function!\"\r\n        );\r\n        _;\r\n    }\r\n\r\n    function newOrgElement(bytes32 _random, uint256 _orgType) public {\r\n        bytes32 newId = _random;\r\n        require(orgElements[newId].id == 0, \"ID creation failed!\");\r\n        orgElements[newId] = orgElement(\r\n            newId,\r\n            msg.sender,\r\n            orgTypes(_orgType),\r\n            new address[](0),\r\n            new bytes32[](0),\r\n            new bytes32[](0)\r\n        );\r\n        ids.push(newId);\r\n        ownerRights[msg.sender].push(newId);\r\n    }\r\n\r\n    function getIds() public view returns (bytes32[] memory) {\r\n        return ids;\r\n    }\r\n\r\n    function setData(bytes32 _id, bytes32 _dataKey, string memory _data)\r\n        public\r\n        onlyOwner(_id)\r\n    {\r\n        require(\r\n            !orgElements[_id].dataKeys.isIn(_dataKey),\r\n            \"This data field was set up already!\"\r\n        );\r\n        orgElements[_id].dataField[_dataKey].data = _data;\r\n        orgElements[_id].dataField[_dataKey].changedLast = block.timestamp;\r\n        orgElements[_id].dataKeys.push(_dataKey);\r\n    }\r\n\r\n    function removeData(bytes32 _id, bytes32 _dataKey) public onlyOwner(_id) {\r\n        require(\r\n            orgElements[_id].dataKeys.isIn(_dataKey),\r\n            \"this data field does not exist!\"\r\n        );\r\n        orgElements[_id].dataField[_dataKey].data = \"\";\r\n        orgElements[_id].dataKeys.pop(_dataKey);\r\n    }\r\n\r\n    function changeData(bytes32 _id, bytes32 _dataKey, string memory _data)\r\n        public\r\n        onlyAdmin(_id)\r\n    {\r\n        require(\r\n            bytes(orgElements[_id].dataField[_dataKey].data).length != 0,\r\n            \"This datafield wasn't initilized by the owner!\"\r\n        );\r\n        orgElements[_id].dataField[_dataKey].data = _data;\r\n        // Bug?\r\n        delete orgElements[_id].dataField[_dataKey].signingIds;\r\n        orgElements[_id].dataField[_dataKey].changedLast = block.timestamp;\r\n    }\r\n\r\n    function getData(bytes32 _id, bytes32 _dataKey)\r\n        public\r\n        view\r\n        returns (string memory data)\r\n    {\r\n        data = orgElements[_id].dataField[_dataKey].data;\r\n    }\r\n\r\n    function getTimeLastChanged(bytes32 _id, bytes32 _dataKey)\r\n        public\r\n        view\r\n        returns (uint256)\r\n    {\r\n        return orgElements[_id].dataField[_dataKey].changedLast;\r\n    }\r\n\r\n    function getDataKeys(bytes32 _id) public view returns (bytes32[] memory) {\r\n        return orgElements[_id].dataKeys;\r\n    }\r\n\r\n    function getOrgType(bytes32 _id) public view returns (uint256) {\r\n        return uint256(orgElements[_id].orgType);\r\n    }\r\n\r\n    function setOwner(bytes32 _id, address _addr) public onlyOwner(_id) {\r\n        rmElementByOwner(msg.sender, _id);\r\n        orgElements[_id].owner = _addr;\r\n        addElementByOwner(_addr, _id);\r\n    }\r\n\r\n    function getOwner(bytes32 _id) public view returns (address) {\r\n        return orgElements[_id].owner;\r\n    }\r\n\r\n    function addAdmin(bytes32 _id, address _addr) public onlyOwner(_id) {\r\n        if (\r\n            uint256(orgElements[_id].rights[_addr]) ==\r\n            uint256(roles.participant)\r\n        ) {\r\n            orgElements[_id].rights[_addr] = roles.admin;\r\n            rmElementByParticipant(_addr, _id);\r\n            addElementByAdmin(_addr, _id);\r\n        } else {\r\n            revert(\"only a Particicpant can become an admin!\");\r\n        }\r\n    }\r\n\r\n    function rmAdmin(bytes32 _id, address _addr) public onlyOwner(_id) {\r\n        orgElements[_id].rights[_addr] = roles.participant;\r\n        rmElementByAdmin(_addr, _id);\r\n        addElementByParticipant(_addr, _id);\r\n    }\r\n\r\n    function addParticipant(bytes32 _id, address _addr) public onlyAdmin(_id) {\r\n        if (uint256(orgElements[_id].rights[_addr]) == uint256(roles.none)) {\r\n            orgElements[_id].rights[_addr] = roles.participant;\r\n            orgElements[_id].participants.push(_addr);\r\n            addElementByParticipant(_addr, _id);\r\n        } else {\r\n            revert(\"Address is already a participant of this org. element.\");\r\n        }\r\n    }\r\n\r\n    function rmParticipant(bytes32 _id, address _addr) public onlyAdmin(_id) {\r\n        if (\r\n            uint256(orgElements[_id].rights[_addr]) ==\r\n            uint256(roles.participant)\r\n        ) {\r\n            orgElements[_id].rights[_addr] = roles.none;\r\n            orgElements[_id].participants.pop(_addr);\r\n            rmElementByParticipant(_addr, _id);\r\n        } else {\r\n            revert(\"Address is not a participant of this org. element.\");\r\n        }\r\n    }\r\n\r\n    function getParticipants(bytes32 _id)\r\n        public\r\n        view\r\n        returns (address[] memory)\r\n    {\r\n        return orgElements[_id].participants;\r\n    }\r\n\r\n    function getRight(bytes32 _id, address _addr)\r\n        public\r\n        view\r\n        returns (uint256)\r\n    {\r\n        return uint256(orgElements[_id].rights[_addr]);\r\n    }\r\n\r\n    function rateData(bytes32 _id, bytes32 _dataKey, int256 _rateing)\r\n        public\r\n        onlyParticipant(_id)\r\n    {\r\n        orgElements[_id].dataField[_dataKey].rating += _rateing;\r\n    }\r\n\r\n    function getDataRateing(bytes32 _id, bytes32 _dataKey)\r\n        public\r\n        view\r\n        returns (int256)\r\n    {\r\n        return orgElements[_id].dataField[_dataKey].rating;\r\n    }\r\n\r\n    function addRelation(\r\n        bytes32 _id,\r\n        bytes32 _relatedId,\r\n        bytes32 _relationType,\r\n        int16 _orientation\r\n    ) public onlyAdmin(_id) {\r\n        //first relation to this Element?\r\n        if (!orgElements[_id].relatedIds.isIn(_relatedId)) {\r\n            orgElements[_id].relatedIds.push(_relatedId);\r\n            orgElements[_relatedId].relatedIds.push(_id);\r\n        }\r\n\r\n        //first relation of this kind between the Elements?\r\n        if (\r\n            !orgElements[_id].relationTypes[_relatedId].isIn(\r\n                _relationType.prefix(_orientation)\r\n            )\r\n        ) {\r\n            orgElements[_id].relationTypes[_relatedId].push(\r\n                _relationType.prefix(_orientation)\r\n            );\r\n            orgElements[_relatedId].relationTypes[_id].push(\r\n                _relationType.prefix(-_orientation)\r\n            );\r\n        }\r\n    }\r\n\r\n    function rmRelation(\r\n        bytes32 _id,\r\n        bytes32 _relatedId,\r\n        bytes32 _relationType,\r\n        int16 _orientation\r\n    ) public onlyAdmin(_id) {\r\n        if (\r\n            orgElements[_id].relationTypes[_relatedId].isIn(\r\n                _relationType.prefix(_orientation)\r\n            )\r\n        ) {\r\n            orgElements[_id].relationTypes[_relatedId].pop(\r\n                _relationType.prefix(_orientation)\r\n            );\r\n            orgElements[_relatedId].relationTypes[_id].pop(\r\n                _relationType.prefix(-_orientation)\r\n            );\r\n        } else {\r\n            revert(\"Relation not found\");\r\n        }\r\n        if (orgElements[_id].relationTypes[_relatedId].length == 0) {\r\n            orgElements[_id].relatedIds.pop(_relatedId);\r\n            orgElements[_relatedId].relatedIds.pop(_id);\r\n        }\r\n    }\r\n\r\n    //not a secure way to handle related Ids! Because everybody can find them in the public Chain!\r\n    function getRelatedIds(bytes32 _id)\r\n        public\r\n        view\r\n        onlyParticipant(_id)\r\n        returns (bytes32[] memory)\r\n    {\r\n        return orgElements[_id].relatedIds;\r\n    }\r\n\r\n    //not a secure way to handle Relation! Because everybody can find them in the public Chain!\r\n    function getRelation(bytes32 _id, bytes32 _relatedId)\r\n        public\r\n        view\r\n        onlyParticipant(_id)\r\n        returns (bytes32[] memory)\r\n    {\r\n        return orgElements[_id].relationTypes[_relatedId];\r\n    }\r\n\r\n    function addElementByOwner(address _addr, bytes32 _id) internal {\r\n        ownerRights[_addr].push(_id);\r\n    }\r\n\r\n    function rmElementByOwner(address _addr, bytes32 _id) internal {\r\n        if (ownerRights[_addr].isIn(_id)) {\r\n            ownerRights[_addr].pop(_id);\r\n        } else {\r\n            revert(\"passed id not found!\");\r\n        }\r\n    }\r\n\r\n    function getElementsByOwner(address _addr)\r\n        public\r\n        view\r\n        returns (bytes32[] memory)\r\n    {\r\n        return ownerRights[_addr];\r\n    }\r\n\r\n    function addElementByAdmin(address _addr, bytes32 _id) internal {\r\n        adminRights[_addr].push(_id);\r\n    }\r\n\r\n    function rmElementByAdmin(address _addr, bytes32 _id) internal {\r\n        if (adminRights[_addr].isIn(_id)) {\r\n            adminRights[_addr].pop(_id);\r\n        } else {\r\n            revert(\"passed id not found!\");\r\n        }\r\n    }\r\n\r\n    function getElementsByAdmin(address _addr)\r\n        public\r\n        view\r\n        returns (bytes32[] memory)\r\n    {\r\n        return adminRights[_addr];\r\n    }\r\n\r\n    function addElementByParticipant(address _addr, bytes32 _id) internal {\r\n        participantRights[_addr].push(_id);\r\n    }\r\n\r\n    function rmElementByParticipant(address _addr, bytes32 _id) internal {\r\n        if (participantRights[_addr].isIn(_id)) {\r\n            participantRights[_addr].pop(_id);\r\n        } else {\r\n            revert(\"passed id not found!\");\r\n        }\r\n    }\r\n\r\n    function getElementsByParticipant(address _addr)\r\n        public\r\n        view\r\n        returns (bytes32[] memory)\r\n    {\r\n        return participantRights[_addr];\r\n    }\r\n\r\n    function addSignature(\r\n        bytes32 _id,\r\n        bytes32 _dataKey,\r\n        bytes32 _signingId,\r\n        bytes32 _dataHash,\r\n        string memory _sig,\r\n        //Time should passed in UNIX\r\n        uint32 _vaildFrom,\r\n        uint32 _vaildTo\r\n    ) public onlyParticipant(_id) onlyAdmin(_signingId) {\r\n        if (!orgElements[_id].dataField[_dataKey].signingIds.isIn(_signingId)) {\r\n            orgElements[_id].dataField[_dataKey].signingIds.push(_signingId);\r\n        }\r\n        orgElements[_id].dataField[_dataKey].signatures[_signingId]\r\n            .signingAddress = msg.sender;\r\n        orgElements[_id].dataField[_dataKey].signatures[_signingId]\r\n            .dataHash = _dataHash;\r\n        orgElements[_id].dataField[_dataKey].signatures[_signingId]\r\n            .signature = _sig;\r\n        orgElements[_id].dataField[_dataKey].signatures[_signingId]\r\n            .vaildFrom = _vaildFrom;\r\n        orgElements[_id].dataField[_dataKey].signatures[_signingId]\r\n            .vaildFrom = _vaildTo;\r\n    }\r\n\r\n    function rmSignature(bytes32 _id, bytes32 _dataKey, bytes32 _signingId)\r\n        public\r\n        onlyAdmin(_signingId)\r\n    {\r\n        if (orgElements[_id].dataField[_dataKey].signingIds.isIn(_signingId)) {\r\n            orgElements[_id].dataField[_dataKey].signingIds.pop(_signingId);\r\n        } else {\r\n            revert(\"passed Id wasn't found\");\r\n        }\r\n    }\r\n\r\n    function getSigningIds(bytes32 _id, bytes32 _dataKey)\r\n        public\r\n        view\r\n        returns (bytes32[] memory)\r\n    {\r\n        return orgElements[_id].dataField[_dataKey].signingIds;\r\n    }\r\n\r\n    function getDataSig(bytes32 _id, bytes32 _dataKey, bytes32 signingId)\r\n        public\r\n        view\r\n        returns (address, bytes32, string memory, uint32, uint32)\r\n    {\r\n        return (\r\n            orgElements[_id].dataField[_dataKey].signatures[signingId]\r\n                .signingAddress,\r\n            orgElements[_id].dataField[_dataKey].signatures[signingId].dataHash,\r\n            orgElements[_id].dataField[_dataKey].signatures[signingId]\r\n                .signature,\r\n            orgElements[_id].dataField[_dataKey].signatures[signingId]\r\n                .vaildFrom,\r\n            orgElements[_id].dataField[_dataKey].signatures[signingId].vaildTo\r\n        );\r\n    }\r\n}",
  "sourcePath": "C:/Users/LB/react-master-data/src/truffle/contracts/MasterData.sol",
  "compiler": {
    "name": "solc",
    "version": "0.5.0+commit.1d4f565a.Emscripten.clang"
  },
  "schemaVersion": "3.2.2",
  "updatedAt": "2020-07-27T16:04:01.262Z",
  "networkType": "ethereum",
  "devdoc": {
    "methods": {}
  },
  "userdoc": {
    "methods": {}
  }
}